:020000040800F2
:100000000005012061020008271F0008231F0008C7
:10001000251F0008EF08000839260008000000002E
:10002000000000000000000000000000A101000826
:10003000130A000800000000FD010008512200081A
:100040008502000885020008850200088502000874
:100050008502000885020008850200088502000864
:100060008502000885020008850200088502000854
:1000700085020008850200082D09000839090008DA
:100080008502000885020008850200088502000834
:100090008502000885020008850200088502000824
:1000A0008502000885020008850200088502000814
:1000B00085020008850200087922000885020008F0
:1000C00085020008850200088502000885020008F4
:1000D000850200082D260008850200088502000818
:1000E000150A00088502000885020008850200083C
:1000F00085020008850200088502000885020008C4
:1001000085020008850200088502000885020008B3
:1001100085020008850200088502000885020008A3
:100120008502000885020008850200088502000893
:100130008502000885020008850200088502000883
:100140008502000885020008850200088502000873
:100150008502000885020008850200088502000863
:100160008502000885020008850200088502000853
:1001700085020008850200088502000800000000D2
:100180008502000885020008DFF810D000F060FB4F
:10019000004800473D7C0008AFF3008000050120C7
:1001A0002C4B19680868B0E8F04F80F30988BFF35A
:1001B0006F8F4FF0000080F311887047000000003F
:1001C00008480068006880F308884FF0000080F35A
:1001D000148862B661B6BFF34F8FBFF36F8F00DF35
:1001E00000BF00BF08ED00E0DFF80C00016841F43B
:1001F00070010160704700BF88ED00E0EFF30980F7
:10020000BFF36F8F134B1A681EF0100F08BF20ED5D
:10021000108A20E9F04F106009B44FF0400080F3DD
:100220001188BFF34F8FBFF36F8F13F081FD4FF035
:10023000000080F3118809BC19680868B0E8F04F25
:100240001EF0100F08BFB0EC108A80F30988BFF3CE
:100250006F8F7047D8020020EFF3058070470000D1
:100260000948016841F47001016008488047084866
:100270000047FEE7FEE7FEE7FEE7FEE7FEE7FEE7F4
:10028000FEE7FEE7FEE7000088ED00E069220008D7
:10029000890100082DE9F05F0546002092469B4643
:1002A00088460646814640241BE02846414647468C
:1002B000224600F01AF953465A46C01A914110D30B
:1002C00011461846224600F001F92D1A67EB010885
:1002D0004F4622460120002100F0F8F817EB0009F4
:1002E0004E41201EA4F10104DFDC484631462A4677
:1002F0004346BDE8F09F000000487047745E010867
:100300000649074A0868504343F23902104408601E
:1003100040087047014908607047000058030020FA
:100320006D4EC64110B5431A934209D283188818FE
:1003300003E010F8011D03F8011D521EF9D210BD93
:1003400040EA01039B0703D009E008C9121F08C057
:10035000042AFAD203E011F8013B00F8013B521ED7
:10036000F9D210BDD2B201E000F8012B491EFBD238
:1003700070470022F6E710B513460A4604461946B0
:10038000FFF7F0FF204610BD30B5044600200346BD
:1003900000E05B1C934203D2E05CCD5C401BF8D0D4
:1003A00030BD2DE9FE4F81EA030404F0004421F042
:1003B000004100944FF0000B23F0004350EA010489
:1003C0005ED052EA03045BD0C3F30A54C1F30A556A
:1003D0002C44A4F2F3340194A0FB0254C1F31301A2
:1003E00041F48011C3F3130343F4801301FB02446F
:1003F00000FB034E840A970A44EA815447EA835774
:10040000A4FB076802958D0A05FB07854FEA932C2C
:1004100004FB0C542705029D4FEA065847EA16379D
:10042000B5EB08056EEB070C870E920E47EA8117B5
:1004300042EA8312A7FB0201B6EB0B0164EB000456
:100440002B0D43EA0C335E1844EB1C50DA46514640
:10045000E7FB0201C5F313044FEA0B3343EA1453DD
:100460004FEA0432019C43EA0603A4F10C0402940F
:10047000009CCDE900B400F057F803B0BDE8F08F60
:1004800000200146F9E70EB540F233410291002108
:10049000CDE900110A460B4600F046F803B000BD56
:1004A00030B50B46014600202022012409E021FA44
:1004B00002F59D4205D303FA02F5491B04FA02F541
:1004C0002844151EA2F10102F1DC30BD202A04DB14
:1004D000203A00FA02F1002070479140C2F1200357
:1004E00020FA03F3194390407047202A04DB203A96
:1004F00021FA02F00021704721FA02F3D040C2F144
:100500002002914008431946704710B5141E73F13C
:10051000000408DA401C41F1000192185B411A43C3
:1005200001D120F0010010BD2DE9F04D92469B460F
:1005300011B1B1FA81F202E0B0FA80F220329046B5
:10054000FFF7C4FF04460F4640EA0A0041EA0B01E8
:1005500053465A46084313D0114653EA010019D0B6
:10056000C8F140025046FFF7C0FF05460E46504610
:1005700059464246FFF7AAFF084305D0012004E090
:1005800020463946BDE8F08D0020054346EAE07676
:100590002C4337430A986305E40AA0EB08000022C5
:1005A000FD0A44EA47540A3002D500200146E9E733
:1005B000010510196941DDE9084500196941BDE8E7
:1005C000F04DA2E72DE9FE4F804681EA0300C00FFF
:1005D0000C46009021F0004123F00045B8EB0200EA
:1005E000A94105D24046214690461C460B4602468C
:1005F00023F00040104347D0270DC7F30A00C3F390
:100600000A510290401A019040286BDAC3F313009C
:1006100040F4801B0098924620B10023D2EB030ADD
:1006200063EB0B0B01985946C0F140025046FFF7AF
:100630004DFF06460D4650465946019A00F01AF9FC
:1006400010EB08006141002487EA115284EAE77345
:100650001A4340D0009A62B3019A012A4FEA075226
:1006600015DC001B61EB02014FF0004202EA075269
:10067000CDE90042001C41F5801132462B46FFF7C0
:1006800053FF03B0BDE8F08F40462146F9E7001B59
:1006900061EB0201001C41F5801300185B4120183A
:1006A000A2F5001747EB030140EAD570B6196D417A
:1006B00011E06D084FEA360645EAC0754FEA075269
:1006C000001B61EB0201001C41F5801149084FEA53
:1006D00030000019514132462B4603B0BDE8F04FBF
:1006E000FFF713BF0098012240000023D0EB020265
:1006F00063EBE073009821464FEAE074B8EB00002A
:1007000061EB0401E9E783F000435BE781F000411E
:1007100058E72DE9F04D81EA030404F0004B21F085
:10072000004514464FF0000A23F0004150EA05024C
:1007300020D054EA01021DD0C5F30A570246C5F382
:100740001303C1F31300C1F30A5640F4801543F4B8
:100750008013A7EB0608101BD64608F2FD3873EB92
:10076000050002D308F1010801E092185B41B8F1DD
:10077000000F03DA00200146BDE8F08D00204FF4A1
:100780008011064684460EE0171B73EB050705D360
:10079000121B63EB050306434CEA010C49084FEAC0
:1007A000300092185B4150EA0107EDD152EA030094
:1007B00012D082EA040083EA0501084305D0101B29
:1007C000AB4106D20122002306E000224FF0004395
:1007D00002E06FF0010253101AEB06004CEB0851D7
:1007E00010EB0A0041EB0B01BDE8F04DFFF78DBEA9
:1007F000C1F30A52C1F3130140F2FF3341F48011F7
:100800009A4202DA00200146704740F233439A428E
:10081000A2F2334202DC5242FFF767BEFFF756BE38
:1008200030B5041E71F1000404DB4FF00044404277
:1008300064EB0101141E73F1000405DB1C464FF04C
:100840000043524263EB0403994208BF904230BD1B
:10085000064C074D06E0E06840F0010394E807000D
:1008600098471034AC42F6D3FFF792FC446201087B
:1008700064620108202A06DBCB17203A41FA02F015
:1008800043EAE07306E041FA02F3D040C2F12002ED
:10089000914008431946704770B58C1810F8015BF9
:1008A00015F0070301D110F8013B2A1106D110F809
:1008B000012B03E010F8016B01F8016B5B1EF9D10D
:1008C0002B0705D40023521E0DD401F8013BFAE793
:1008D00010F8013BCB1A921C03E013F8015B01F8FE
:1008E000015B521EF9D5A142D8D3002070BDFEE7AE
:1008F00070B50346002041F221044FF6FF7510E069
:1009000013F8012B80EA02200022060403D584EAB2
:10091000400080B201E005EA4000521CD2B2082A31
:10092000F3D3491E89B2EBD270BD0000014800F03C
:1009300059B9000064040020014800F053B90000D8
:10094000040400200168CAB2103A1823B2FBF3F283
:10095000064B9B5CC3656FF30901032A02D9091D8D
:10096000816500E08165806D70470000D055010809
:1009700010B5014600208A6A8B694FF0C074002BC5
:100980000ED0B3F5005F1AD062B3012A2AD0022A32
:1009900028D0032A03D1C96AC90100D5012010BD9E
:1009A0001AB1012A06D0022AF9D1C96AC901F6D5BD
:1009B000012010BDC96AA142FBD1012010BD52B176
:1009C000012A0AD0022A06D0032AF7D1C96AA14215
:1009D000F4D1012010BD012010BDC96AC901FBD5A9
:1009E000012010BD012010BD30B50468256825F434
:1009F00080252560046863608368402B04D0036809
:100A000099600068C26030BD03689A600068C16088
:100A100030BD70470EB50F480168890418D54114E0
:100A200001600020009001208DF808000A48002392
:100A30006A4601A9C06813F07DFE0098002807D01F
:100A400006494FF080500860BFF34F8FBFF36F8FA0
:100A50000EBD0000143C01407C00002004ED00E0CD
:100A600070B5B3F5804F05D06FF0704140F822109B
:100A7000002070BD50F82230084C2340D1E90045D9
:100A800044EA05148D688E892D0245EA0645896978
:100A90002C430C431C4340F82240E9E70000F0CF10
:100AA000F0B50C6850F82450114A1540D1E90123E3
:100AB000D1E903671A433E4332434E6932438E699C
:100AC0003243CE6932430E6A32434E6A32438E6AF3
:100AD0003243CE6A3243CE6B096B32430A432A4318
:100AE000082B01D142F0400240F824200020F0BD44
:100AF0008000F0FF70B5521C50F8223003F04043E4
:100B0000D1E9004544EA05148D688E892D0245EA35
:100B100006452C430D8A6D1E44EA05550C7D8969F6
:100B2000A41E45EA04640C431C4340F82240002004
:100B300070BD2DE9F0410446A76D00F0E1FA0546CD
:100B400094F835000026022806D08020606584F8DD
:100B500034600120BDE8F0812068016821F01601B1
:100B600001602068416921F080014161206C08B971
:100B7000A06C20B12068016821F0080101602068A4
:100B8000016821F0010101600BE000F0B9FA401B9F
:100B9000052806D920203434206226700320607096
:100BA000D8E720680068C007EFD134343F2094F8BC
:100BB00028108840B8602670012060700020C9E7C6
:100BC00090F83510022903D080214165012070473B
:100BD000052180F835100068016821F001010160ED
:100BE000002070472DE9F84304464FF00009CDF886
:100BF00000906F484FF416510068B0FBF1F7A56DF7
:100C00002E6894F85C00082202FA00F1314210D0FC
:100C10002068016849070CD5016821F004010160D2
:100C200094F85C0002FA00F1A960606D40F00100E8
:100C3000606594F85C104FF0010808FA01F030424A
:100C400008D021684969090604D5A860606D40F0A4
:100C50000200606594F85C1004208840304208D09F
:100C600021680968890704D5A860606D40F0040018
:100C7000606594F85C1010208840304220D02168D4
:100C8000096809071CD5A8602068016849030CD5CC
:100C90000068000304D4216C91B1204688470FE01E
:100CA000A16C69B1204688470AE00168C90503D4F0
:100CB000016821F008010160216C09B120468847D4
:100CC00094F85C102020884030424CD0216809689C
:100CD000C90648D5A86094F8350005280BD02068CF
:100CE0000168490330D50068000328D4616C51B312
:100CF0002046884737E02068016821F0160101602E
:100D00002068416921F080014161206C08B9A06C24
:100D100020B12068016821F00801016094F85C109E
:100D20003F208840A86084F8349084F83580216D95
:100D300000293BD001B02046BDE8F0430847E16BF5
:100D400009B1204688470EE00168C90507D401684B
:100D500021F01001016084F8349084F83580E16B53
:100D600009B120468847606D00281FD0606DC0071C
:100D700014D0052084F835002068016821F00101B5
:100D800001600098401C0090B84203D820680068B9
:100D9000C007F6D184F8349084F83580E16C0029DE
:100DA00004D001B02046BDE8F0430847BDE8F88311
:100DB000040000202DE9F041044600F0A1F90546A9
:100DC0005CB1002684F83460022084F83500206885
:100DD000016821F0010101600DE00120BDE8F08112
:100DE00000F08EF9401B052805D9202060650320FE
:100DF00084F83500F2E720680068C007F0D1216868
:100E00000A6820480240D4E901031843D4E90335B5
:100E10002B43184363691843A3691843E3691843D4
:100E2000236A18431043626A042A03D1D4E90B23CE
:100E30001A43104308602068406920F00700656A83
:100E400029460543012704290DD1A06A0543E06A1C
:100E500048B12046FFF78CFD28B14020606584F83A
:100E600035700120BAE7206845612046FFF76AFD2A
:100E700094F85C203F2191408160666584F835706C
:100E80000020ABE73F8010F02DE9F041044600253B
:100E9000A66D94F8340001280DD0012084F83400A8
:100EA00094F835700020012F07D084F83400022513
:100EB0002846BDE8F0810220FBE7022784F8357060
:100EC00060652046FFF790FD94F85C103F20884055
:100ED000B0602068016841F016010160206C20B10B
:100EE0002068016841F0080101602068016841F054
:100EF00001010160DCE700002DE9F84F0022DFF876
:100F00009C914FF0010809F1040A03274FF00F0CE0
:100F10000AF1040B08FA02F50B682B40AB4272D1C0
:100F20000C7904F00304012C01D0022C15D1866841
:100F3000540007FA04FE26EA0E06D1F80CE00EFA79
:100F400004FE4EEA060EC0F808E04468AC430D7992
:100F5000C5F300159540254345600C79E443A4078B
:100F600008D0C568540007FA04F6B5438E68A64059
:100F70002E43C6600C7904F00304022C11D1D4086E
:100F800000EB8406356A5407E40E0CFA04FE25EAE9
:100F90000E05D1F810E00EFA04FE4EEA050EC6F872
:100FA00020E00568540007FA04F6B5430E7906F010
:100FB0000306A6402E4306604C68E40067D5384C13
:100FC000256845F480452560246804F48044009435
:100FD000344C22F003052E19D6F8085894074FEA2E
:100FE000147E0CFA0EF4A5432F4CA04201D100242C
:100FF00024E02E4CA04201D101241FE02C4CA04241
:1010000002D102241AE042E02A4CA04201D103247A
:1010100014E0294CA04201D104240FE0274CA04247
:1010200001D105240AE0264CA04201D1062405E0A6
:10103000244CA04201D1072400E0082404FA0EF455
:101040002C43C6F80848D9F800409C434D68ED038E
:1010500000D51C43C9F80040DAF800409C434D68B5
:10106000AD0300D51C43CAF80040DBF800409C43A8
:101070004D68ED0200D51C43CBF80040074D0C3500
:101080002C689C434E68B60200D51C432C60521C51
:10109000102AFFF43FAFBDE8F88F0000003C01408C
:1010A0004438024000300140000002400004024089
:1010B00000080240000C02400010024000140240F0
:1010C00000180240001C02400069084201D00120C3
:1010D000704700207047426921EA02030A4043EA50
:1010E000024181617047002A01D081617047090483
:1010F0008161704701480068000C7047002004E0DF
:1011000001488068704700004C0000200248816858
:1011100002781144816070474C00002010B50B48E4
:10112000016841F400710160016841F4806101606F
:10113000016841F480710160032000F059F80F202C
:1011400000F006F800F026F8002010BD003C024038
:1011500070B504460D4D4FF47A712878B1FBF0F06C
:101160000B490968B1FBF0F000F0A6FC08B10120C2
:1011700070BD102C07D200222146501E00F018F836
:101180006C60002070BD012070BD00004C0000208C
:10119000040000207047002809DB00F01F02012135
:1011A00091404009800000F1E020C0F80011704734
:1011B000F0B40D460D4B1B68C3F30223C3F10704C3
:1011C000042C00D90424191D072901D2002300E0B2
:1011D000DB1E012606FA04F1491E294099409E4073
:1011E000761E16403143F0BC01F006BE0CED00E067
:1011F00000F00701054A10684FF6FF03184040EA67
:101200000120034908431060704700000CED00E026
:101210000000FA052DE9F04704460D46002C13D0D6
:10122000DFF82891D9F80000EFB200F00700A842DB
:101230000CD289F80070D9F8000000F00700A8422D
:1012400004D00120BDE8F0870120FBE72068404E74
:10125000810712D5400703D5306840F4E050306074
:101260002078000703D5306840F460403060306873
:10127000A16820F0F000084330602078C00731D02A
:10128000334960680839012808D002280BD00328A8
:1012900009D0096889070BD40120D3E709688903BD
:1012A00006D40120CEE70968890101D40120C9E7ED
:1012B000316821F0030101433160FFF721FF8046CF
:1012C00041F2883A07E0FFF71BFFA0EB080050450A
:1012D00001D90320B6E73068616800F00C00B0EB7C
:1012E000810FF0D1D9F8000000F00700A84209D919
:1012F00089F80070D9F8000000F00700A84201D07A
:1013000001209FE72078400705D53068E16820F488
:10131000E050084330602078000706D53068216926
:1013200020F4604040EAC100306000F03FF83168CE
:10133000084AC1F30311515CC840074908600748D7
:101340000068FFF705FF00207CE70000003C02403A
:1013500008380240B8550108040000205000002061
:1013600001480068704700000400002000B5FFF746
:10137000F7FF04490968044AC1F38221515CC8405F
:1013800000BD000008380240C855010800B5FFF74D
:10139000E7FF04490968044AC1F34231515CC8407F
:1013A00000BD000008380240C855010810B51748B4
:1013B000006810F00C01164816D04310042912D012
:1013C000082911D1114C241F216801F03F02216826
:1013D00049020AD52068C0F38810A0FB030100234E
:1013E000FEF758FF09E0184610BD21680023C1F33D
:1013F0008811A1FB0001FEF74DFF2168C1F30141F7
:10140000491C4900B0FBF1F010BD00000838024053
:101410000024F4002DE9F84F0446002C13D0207866
:10142000DFF8A083C007A8F1040556D008F1040036
:101430000168C1F3810101290CD00068C0F381006B
:10144000022803D00DE00120BDE8F88FD8F8000095
:10145000400206D5286880033FD5606870BB012034
:10146000F2E76068B0F5803F10D0B0F5A02F12D041
:10147000286820F480302860286820F480202860C4
:101480006068E0B1FFF73CFE064614E0286840F4CF
:1014900080302860F4E7286840F4802028602868BD
:1014A00040F480302860EBE7FFF72AFE801B6428B9
:1014B00001D90320C8E728688003F5D50DE0FFF7C0
:1014C0001FFE064606E0FFF71BFE801B642801D9BD
:1014D0000320B9E728688003F5D42078BA4F800745
:1014E0004FF0000948D5B748001D016811F00C0FF6
:1014F00008D00068C0F38100022813D1D8F800009A
:1015000040020FD42868800704D5E068012801D084
:10151000012099E72868216920F0F80040EAC1001D
:10152000286029E0E068B8B101203860FFF7E8FDE5
:10153000064606E0FFF7E4FD801B022801D90320E0
:1015400082E728688007F5D52868216920F0F8002F
:1015500040EAC10028600FE0C7F80090FFF7D0FD17
:10156000064606E0FFF7CCFD801B022801D90320C8
:101570006AE728688007F5D42078000729D5DFF8C6
:1015800044A2924861690AF1700A89B1012101609F
:10159000FFF7B6FD064606E0FFF7B2FD801B022806
:1015A00001D9032050E7DAF800008007F4D510E0F5
:1015B000C0F80090FFF7A4FD064606E0FFF7A0FD87
:1015C000801B022801D903203EE7DAF800008007DB
:1015D000F4D42078400778D54FF0000A79483C30A1
:1015E0000068C0000BD477483C30016841F080515E
:1015F0000160006800F0805000904FF0010ADFF8B1
:10160000D0B1DBF80000C00514D4DBF8000040F4D2
:101610008070CBF80000FFF773FD064606E0FFF789
:101620006FFD801B022801D903200DE7DBF80000C5
:10163000C005F4D5634EA0686C3601280FD005288C
:1016400012D0306820F001003060306820F00400D3
:101650003060A068F8B1FFF753FD834617E03068AB
:1016600040F001003060F4E7306840F00400306082
:10167000306840F001003060EBE7FFF741FDA0EB80
:101680000B0141F28830814201D90320DCE6306849
:101690008007F2D510E0FFF733FD834609E0FFF73E
:1016A0002FFDA0EB0B0141F28830814201D90320CC
:1016B000CAE630688007F2D4BAF1010F05D141487B
:1016C0003C30016821F080510160A069C0B33D4900
:1016D000091D09684FF0FF36C1F38101022946D088
:1016E000022805D0C7F86090FFF70AFD04463AE0EB
:1016F000C7F86090FFF704FD814607E0FFF700FDA3
:10170000A0EB0900022801D903209DE6286880018A
:10171000F4D4D4E907010843616AA26A890106EB9F
:10172000520241EA0241084394F82C1040EA016059
:10173000C8F8000001203866FFF7E2FC044607E025
:101740003DE0FFF7DDFC001B022801D903207BE60A
:1017500028688001F5D532E0FFF7D2FC001B022893
:1017600001D9032070E628688001F5D427E001281C
:1017700023D0D8F80000E26900F4800191421AD128
:10178000226A00F03F01914215D147F6C071626AAA
:101790000140B1EB821F0ED1A26A00F4403106EB8A
:1017A0005202B1EB024F06D194F82C1000F0706099
:1017B000B0EB016F03D0012046E6012044E6002093
:1017C00042E600000438024000004742800E4742D3
:1017D00000700040704770B50446002C0AD0606A63
:1017E000002548B1256165614FF4005694F8510019
:1017F00040B10CE0012070BD6068B0F5827FF3D08D
:10180000E561F1E784F85050204600F04BF80220E3
:1018100084F851002068016821F040010160A0882F
:10182000218900F4827001F404410843A18901F484
:1018300000610843217C01F002010843217D01F091
:1018400001010843218B01F400710843217F01F05D
:101850003801084394F8201001F080010843218DDD
:1018600001F40051084321680860A069042101EADD
:10187000104094F8241001F01001084321684860DA
:10188000A06AB04203D1A08D216880B208612068AF
:10189000C16921F40061C1616565012084F85100CE
:1018A000002070BD70477047704700002DE9F0417F
:1018B0000446002594F8500001280DD0012784F833
:1018C000507094F85100D4F804C0002601280FD0BD
:1018D000BCF5827F0AD102E00220BDE8F081D4F895
:1018E00008C0BCF1000F01D1042801D0022578E026
:1018F000B1B1AAB1A3B194F85100042802D00520D7
:1019000084F8510066652163A386E386A263A387FA
:10191000E38726646664A06AB0F5005F02D00BE03E
:1019200001255EE02068016821F400510160206813
:10193000016841F40051016094F8510004281AD064
:10194000E16C2A480864E16C2948C863E16C2948C5
:10195000C864E06C0665E38F2168A26B0C31E06C13
:10196000FFF792FA70B1606D40F0100060650125DC
:1019700084F8517035E0E16C1F480864E16C1F4841
:10198000C863E3E72068416841F001014160A06C51
:101990000664A06CC663A06CC664A06C0665E38E8A
:1019A0002268216B0C32A06CFFF76EFA38B1606DC3
:1019B00040F010006065012584F8517011E0206846
:1019C0000168490603D4016841F0400101602068C4
:1019D000416841F0200141602068416841F0020106
:1019E000416084F85060284677E70000551F0008E2
:1019F0000F200008291F00084B1F00085F1F000868
:101A000008B500680B49884213D10B4801210170C9
:101A1000002100916946406812F012FF00980028EA
:101A200007D006494FF080500860BFF34F8FBFF3D7
:101A30006F8F08BD003800406C00002004ED00E00E
:101A4000704770B504460E461546002C03D094F836
:101A5000490010B107E0012070BD002084F8480063
:101A6000204600F01AF804F108012068FFF718F882
:101A70003146A2682068FFF73DF8D4E90102294603
:101A8000236BFEF7EDFFA168206850F8212042F09B
:101A9000010240F82120002070BD70474FF0E02186
:101AA000042804D0086920F0040008617047086920
:101AB00040F004000861704710B5401EB0F1807F0F
:101AC00001D3012010BD4FF0E02460610F216017A9
:101AD00001F092F90020A06107202061002010BDD4
:101AE00010B50446002C03D094F83D0010B107E077
:101AF000012010BD002084F83C00204600F015F8BD
:101B0000022084F83D00211D206800F0CFFB012059
:101B10003D3460726070A070E07020716071A071DF
:101B2000E07120722070002010BD704790F83D10C9
:101B3000012901D001207047022180F83D10016881
:101B4000CA6842F00102CA6000681449884214D091
:101B5000B0F1804F11D0124988420ED0114988420D
:101B60000BD01149884208D01049884205D010494D
:101B7000884202D00F49884209D1816801F00701EB
:101B8000062908D0016841F00101016003E0016805
:101B900041F0010101600020704700000000014099
:101BA0000004004000080040000C00400004014018
:101BB000004001400018004070477047F8B50446E7
:101BC00022681068D168536900F00F05002D08D114
:101BD000860606D58E0604D52046BDE8F84000F0FE
:101BE000F8BB0026002D60D003F0010501F49077CA
:101BF0002F435AD0C20705D0CA0503D5226C42F044
:101C000001022264420705D5DA0703D0226C42F0B4
:101C100002022264820705D5DA0703D0226C42F063
:101C200004022264020707D501F020022A4303D0F0
:101C3000226C42F008022264226C002A2BD080061B
:101C400004D5880602D5204600F0C3FB2068406911
:101C5000C0F38010216C090700D408B3204600F0BF
:101C600093FB20684169490616D5416921F040017E
:101C70004161A06B60B144490165A06BFEF7A0FF14
:101C8000002808D0A06B016D01B0BDE8F040084706
:101C90002046FFF792FFF8BD2046FFF78EFFF8BD04
:101CA0002046FFF78AFF2664F8BD236B012B58D12D
:101CB000C30656D5CB0654D51068506800905069BD
:101CC0004FF0200340062ED5A16B0868406880B213
:101CD0000028E9D0A58D8542E6D9E085C869B0F530
:101CE000807F18D0D06820F48070D060206841696F
:101CF00021F0010141612068416921F04001416109
:101D000084F83E3026632068C16821F01001C1606C
:101D1000A06BFEF70EFFA08DE18D401A81B2204628
:101D2000FFF74AFFF8BDA08DE18D401A81B2E08D2A
:101D30000028F7D00029F5D0D06820F49070D0604A
:101D40002068426922F00102426184F83E30266335
:101D50002068C26822F01002C2602046FFF72CFF04
:101D6000F8BD020606D50A0604D52046BDE8F840AF
:101D700000F02DBC4006F3D54806F1D52046BDE85D
:101D8000F84000F019BB00007923000870B5044644
:101D9000002C04D094F83D00002510B106E001208D
:101DA00070BD84F83C50204600F022F8242084F8CE
:101DB0003D002068C16821F40051C160204600F058
:101DC00061FB2068016921F490410161206841694B
:101DD00021F02A0141612068C16841F40051C160CD
:101DE0002564202084F83D0084F83E00002070BD6A
:101DF00030B587B000681F49884238D11E48016855
:101E000041F010010160006800F0100001901A48D4
:101E10001438016841F001010160016801F001011D
:101E20000191016841F001010160006800F00100CA
:101E300001904FF400700290022003900121049160
:101E40000590072406940D4D02A92846FFF754F883
:101E500029150291069402A92846FFF74DF825207E
:101E6000FFF799F9032211462520FFF7A1F907B0E2
:101E700030BD000000100140443802400000024024
:101E800090F83E30202B01D00220704759B152B15A
:101E900090F83C30012B08D0012380F83C3000231F
:101EA000036300F079BB01207047022070470000F7
:101EB00070B500681749884227D1174C6088010423
:101EC0001AD404F10101430409784FF0000207D548
:101ED0000A2901D062800FE040F4004060800BE0EE
:101EE0000D2913D00D4DC0F30D03E954401C80B2F1
:101EF0006080092800D96280074908480122491CEE
:101F00000C30FFF7BDFF0120207070BD40F4804011
:101F10006080F1E7001001404400002064030020CD
:101F20007047FEE7FEE7704710B5806B01684A68AE
:101F300022F003024A60416D41F010014165012128
:101F400080F85110FFF746FC10BD10B5806BFFF70D
:101F5000ABFC10BD10B5806BFFF772FD10BD2DE915
:101F6000FC410646B46B00270197FFF7C9F8054608
:101F700030680068C00546D42068416821F020011F
:101F80004160A06AB0F5005F0ED1012264231146C2
:101F90002046009500F0FEF818B1606D40F0020098
:101FA00060652068C0680190A06818B96068B0F5E5
:101FB000827F22D02068416821F0010141602A46D9
:101FC0006421204600F072F808B120206065E787A0
:101FD000012084F8510020688168C90606D5616D2A
:101FE00041F0020161654FF6EF718160606D50B1A3
:101FF0002046FFF7EFFBBDE8FC812068416821F037
:1020000003014160DBE72046FFF74DFCF3E72DE9D4
:10201000FC410646B46B00270197FFF771F80546AF
:1020200030680068C0053DD42068416821F0200177
:102030004160A06AB0F5005F0ED101226423114611
:102040002046009500F0A6F818B1606D40F002003F
:1020500060652068C06801902A466421204600F02F
:102060006BF818B1606D40F0200060652068416831
:1020700021F003014160E786E787012084F85100E1
:1020800020688168C90606D5616D41F0020161656D
:102090004FF6EF718160606D20B12046FFF79AFB2B
:1020A000BDE8FC812046FFF7ABFCF9E7F8B5044634
:1020B0004FF4827560684FF48063A8420AD1A0682B
:1020C000B0F5004F01D0984204D12068066826F090
:1020D000400606606068A8421ED1A06898420DD0F4
:1020E0000B46009200228021204600F053F808B3EE
:1020F000606D40F0200060650320F8BD0B46009243
:1021000000220121204600F045F898B1606D40F0B2
:10211000200060650320F8BD0B46009200220121DB
:10212000204600F037F828B1606D40F0200060656F
:102130000320F8BD0020F8BD7CB504461348144DBB
:102140000068B0FBF5F04FF47A7568430190606861
:10215000B0F5827F0DD10B460092002280212046EF
:1021600000F018F878B1606D40F020006065032041
:102170007CBD019838B10198401E019020688068AC
:10218000C0430006F5D500207CBD000004000020FF
:1021900000366E012DE9F84304460F4691461E466F
:1021A000089DFEF7ADFF401B351AFEF7A9FF8046DC
:1021B00026480068C0F3CB30684300903AE0701CBA
:1021C00038D0FEF79DFFA0EB0800A84203D215B15E
:1021D000009858B32BE02068416821F0E00141608D
:1021E0006068B0F5827F0BD1A068B0F5004F02D0D7
:1021F000B0F5806F04D12068016821F040010160D2
:10220000A06AB0F5005F09D12068016821F400518F
:1022100001602068016841F40051016001205034E0
:102220006070002020700320BDE8F883002500982E
:10223000401E00902068806837EA000004D000202B
:102240004845BCD10020EFE70120F9E70400002059
:1022500010B5FEF75BFF12F0A9FE012803D0BDE820
:10226000104012F0B9B810BD0248016841F4700185
:102270000160704788ED00E010B50A4C2068C06826
:10228000C043C00709D10848006980472168002081
:10229000486221686420C862E06021686FF0010034
:1022A000086110BD1C090020080100202DE9F04143
:1022B0000268264D264E274FDFF89CC0274B4FF073
:1022C0008048A84209D0404507D0B04205D0B84266
:1022D00003D0604501D0984203D122F070044A68CF
:1022E0002243A8421BD0404519D0B04217D0B84273
:1022F00015D0604513D0984211D0194CA0420ED091
:10230000184CA0420BD0184CA04208D0174CA04249
:1023100005D0174CA04202D0164CA04203D122F4A3
:102320004074CA6822434C6922F080022243026052
:102330008A68C2620A688262A84201D0984201D1CA
:102340000969016301214161BDE8F081000001409C
:102350000004004000080040000C00400004014060
:102360000040014000440140004801400018004086
:10237000001C00400020004010B5806B0021C1858A
:10238000C184FFF71AFC10BD0168CA6822F490727C
:10239000CA6001684A6922F001024A61016B0129A1
:1023A00004D10168CA6822F01002CA60202180F8B6
:1023B0003E1000210163704710B50168CA6822F021
:1023C0004002CA60202180F83D10FFF7A9FD0020DF
:1023D00010BD10B5044694F83E00222801D002201A
:1023E00010BDA1684FF48052914201D1206920B103
:1023F000A06A91421DD051B10BE0A06A21684968E2
:10240000C1F308010180A06A801CA06209E0216973
:1024100079B12168496801F07F010170A06A401C10
:10242000A062E08D401E0004000CE08505D0002075
:1024300010BD216849680170F0E72068C16821F08B
:102440002001C1602068C16821F48071C1602068EA
:10245000416921F001014161202084F83E00206B98
:10246000012805D02046FFF723FD0020206310BD82
:102470002068C16821F01001C160A18D2046FFF7DE
:102480009BFBF2E72DE9F041044620680169E26810
:1024900021F4405111430161A1682069E2690143BF
:1024A0006069104301432068C26849F20C639A4393
:1024B0000A43C26020684169A26921F44071114356
:1024C000416133492068884202D03249884202D1B2
:1024D000FEF75CFF01E0FEF749FFE16900231927E1
:1024E00064253226B1F5004F28D061688B0F8A0031
:1024F000A0FB0701FDF7CEFE0146B0FBF5F07A42E6
:10250000504301EB800006EB0010B0FBF5F000F04B
:10251000F002B1FBF5F002EB0012B1FBF5F07B42EB
:10252000584301EB800006EB0010B0FBF5F021688A
:1025300000F00F0010448860BDE8F08161684A181F
:10254000A0FB07015B41FDF7A5FE0146B0FBF5F0DE
:102550000201B1FBF5F06FF01803584301EB800066
:1025600006EBC000B0FBF5F000F0F80002EB400213
:10257000B1FBF5F0584301EB800006EBC000B0FB67
:10258000F5F0216800F0070010448860D4E70000EF
:10259000001001400014014081628285C285002143
:1025A0000164222280F83E2080F83C100168CA684D
:1025B00042F48072CA6001684A6942F001024A61CD
:1025C0000068C16841F02001C1600020704790F8A8
:1025D0003D10212901D0022070478168B1F5805F4C
:1025E00001D1016961B1016A4A1C0262026809787D
:1025F0005160C18C491E0904090CC1840AD013E042
:10260000016A02680988C1F308015160016A891CE6
:102610000162EEE70168CA6822F08002CA600068C1
:10262000C16841F04001C160002070470148FFF7D8
:10263000C5BA000070030020FEE700002DE9FC474A
:10264000354D36484068D0F8489040F2DC510020C3
:1026500007F022F98246514631A000F0A9FB314E25
:1026600000F0CEF84FF6DC68404545D12E492FA04A
:1026700000F09EFB36A000F09BFB5146BDE8FC47F6
:10268000002007F0FDB84021012000F005FA0446C3
:102690004121012000F000FA44EA0024A20851463A
:1026A00030460AF091FB264402200021CDE90010BB
:1026B000234652464946012000F036FA02281DD032
:1026C0006421022000F044FB4021012000F0E4F9E5
:1026D0000746F8070BD04121012000F0DDF93B4609
:1026E0002246114927A0009500F062FB06E02D1B51
:1026F000294634A000F05CFB002DC4D100F080F826
:102700004045FBD134A000F053FBBDE8FC474FF43B
:10271000FA7001F033B8000030E6030058000020E2
:102720002570000000000C08D855010825733A20D8
:102730005265736574207369676E616C206861739C
:10274000206E6F20656666656374210D0A000000C7
:10275000506C65617365206D616B65207375726582
:102760002050444E2070696E20697320636F6E6E36
:10277000656374656420746F20746865204D4355EB
:10278000210D0A0025733A20446174612077657237
:1027900065206E6F74207265636F676E697A656419
:1027A0002120637572723D25642C207265747279E4
:1027B0003D25642C2072656D61696E696E673D25EB
:1027C000640A0000CAA3D3E0B5C4B3A4B6C8CAC79C
:1027D00025640D0A000000004669726D776172651C
:1027E000206973207375636365737366756C6C79A8
:1027F00020646F776E6C6F61646564210A0000006D
:1028000010B56021012000F047F904466121012044
:1028100000F042F944EA002010BD70B50022002902
:1028200001D00278120201244FF6FF750DE001D0AD
:10283000035D1A430023160401D582F4094205EA18
:1028400042025B1C082BF6DB641C8C42EFDD4FEA76
:10285000522070BD10B50346002094070A6802D5C7
:10286000B2F5007F0FD90A4830F81330B2FBF3F00D
:1028700080B2B2FBF3F403FB14220AB1401C80B215
:1028800043430B6010BDD21C22F003020A6010BD4E
:102890007400002010B54FF400510448FEF714FCFA
:1028A000012801D0012010BD002010BD0008024009
:1028B0002DE9FF4F85B08246DDE912568B4617465B
:1028C00009F0D6FE30B143A000F072FA022009B040
:1028D000BDE8F08F4FF000090024B80707D0464943
:1028E00046A000F065FA09F069FD0220EFE70898BC
:1028F00090B1324608A95046FFF7ACFF80469DB123
:10290000089A954210D22B463B4945A000F050FA58
:1029100009F054FD0220DAE7374950A000F048FAE8
:1029200009F04CFD0220D2E7F00701D04FF080649F
:10293000012004A9B8F1000F09D0CDE9001044F03E
:10294000006342465946504600F0C4F808E0CDE91D
:1029500000100898234682B25946504600F0BAF853
:1029600000242AE064B1FF2009F036FF0490FE281D
:1029700006D04FF0010920493EA000F019FA1FE0EF
:10298000B8F1000F03D0434830F81A0000E008986F
:1029900086B225B13146384600F08AF803E0314668
:1029A000002000F085F8022103A800F081F805B1AD
:1029B00037440898801B0890641C08980028D1D1DF
:1029C00009F0FCFCB9F1000F01D000207FE70120E5
:1029D0007DE70000D4DA576946695F4C6F774C6534
:1029E00076656C5F5265616444617461D1A1D6D033
:1029F000CAA7B0DC0D0A00000656010825733A206C
:102A000064617461206D75737420626520342D6279
:102A100079746520616C69676E6564210A00000045
:102A200025733A206120627566666572206F6620A4
:102A30006174206C6561737420256420627974650B
:102A400073206973207265717569726564212062F3
:102A5000756673697A653D25640A000025733A201E
:102A600073697A652063616E6E6F742062652030D1
:102A7000210A000025733A20696E76616C69642032
:102A80007374617274206F6620626C6F636B210ACD
:102A900000000000740000200EB5022202ABCDE958
:102AA000003200231A4600F007F89DF809000EBD19
:102AB00009F078BE09F0ACBE30B4DDE9024500078C
:102AC00040EA4121114319432B46224630BC3420B1
:102AD00009F0EABD30B4DDE90245000740EA4121D2
:102AE000C2F30800014319432B46224630BC35206F
:102AF00009F0DABD70B505460C460A4820F81540C5
:102B0000102040EA0521E2B2002000F015F9112062
:102B100040EA0521C4F30722002000F00DF901204E
:102B200070BD0000740000202DE9FF4F83B0804687
:102B3000DDE9109A8B46154609F09AFD30B148A0A0
:102B400000F036F9022007B0BDE8F08F00274FF003
:102B50000044A80707D04B494BA000F029F909F021
:102B60002DFC0220EFE7069810B3524606A9404616
:102B7000FFF770FE0646B9F1000F07D0069A91459F
:102B800004D24B463F4949A000F012F95FEACA70EF
:102B900001D04FF0044402A902208EB1CDE900100B
:102BA00044F00063324659464046FFF793FF10E079
:102BB00034494DA000F0FCF809F000FC0220C2E707
:102BC000CDE900100698234682B259464046FFF7E9
:102BD00081FF401C03D0FF2009F0FEFD34E009F026
:102BE000EDFB47A000F0E4F80020ACE716B14A483E
:102BF00030F81840FC2009F0EFFDA1B22846FFF79D
:102C000059FFA1B22846FDF773FE81464FEA19200D
:102C100009F0E2FD09F0FF0009F0DEFDFF2009F0F8
:102C2000DBFD8DF80800E5280AD0EB2808D0014626
:102C300022463AA000F0BCF809F0C0FB022082E76F
:102C400025440698001B0690069C0CB1002FCDD0A1
:102C500009F0B4FB0FB1002075E7012073E7000015
:102C6000D4DA576946695F4C6F774C6576656C5F5F
:102C7000577269746544617461D1A1D6D0CAA7B096
:102C8000DC0D0A00EE55010825733A206461746179
:102C9000206D75737420626520342D62797465200F
:102CA000616C69676E6564210A00000025733A2033
:102CB0006120627566666572206F66206174206CA3
:102CC000656173742025642062797465732069736B
:102CD0002072657175697265642120627566736919
:102CE0007A653D25640D0A0025733A2073697A657B
:102CF0002063616E6E6F742062652030210A0000CF
:102D0000B7B5BBD8D6B5CAC7B3ACCAB1BCC4BCC4CE
:102D1000C1CB0D0A0000000074000020B4ABCAE46F
:102D2000B4EDCEF325327820B4CBCAB1637572729C
:102D3000CEAA25640D0A00003EB5022302ACCDE9FF
:102D400000434FF00843FFF7B7FE9DF809003EBD72
:102D500070B505460C46FEF7D3F906460BE0FEF7C4
:102D6000CFF9801B3CB1A04205D9294609A000F04B
:102D70001FF8002070BD03210120FFF78DFE35EA0A
:102D80000000ECD10322AA4303210120FFF7D4FF66
:102D9000012070BD576946695F57616974283078B2
:102DA000253278293A2074696D656F7574210A009F
:102DB0000FB4054B10B503A9044A029800F0FEF8C1
:102DC00010BC5DF814FB00002545000848000020F9
:102DD0000FB4084B10B504A902AA039800F0EEF84E
:102DE000044602A9002000F06CFC204610BC5DF8EF
:102DF00014FB0000C33600080907090E002804DB95
:102E000000F1E02080F80014704700F00F0000F19E
:102E1000E02080F8141D704702E008C8121F08C1A6
:102E2000002AFAD170477047002001E001C1121F4B
:102E3000002AFBD1704700002DE9FF5F82B000211E
:102E4000DDE90430020DDDF840B0034318D044F64C
:102E50001050A2F2FF3242431514119801281FD0DE
:102E6000A5EB0B00401C5FEA000A4FF000064E4F36
:102E7000DFF83891B046504615D5CAF1000413E08A
:102E8000119801244AA3012801D16FEA0B0102988D
:102E9000119AC0E90031C0E9024206B0BDE8F09FD6
:102EA000CBF10000DFE704460021404A491842EB1D
:102EB0000450CDE9001012E0E00707D032463B464F
:102EC00040464946FDF76DFA8046894632463B4604
:102ED00010461946FDF765FA06460F466410002CA9
:102EE000EAD1DDE90401DDE90023BAF1000F06DAD9
:102EF000FDF757FA42464B46FDF753FA05E0FDF75A
:102F000008FC42464B46FDF704FC04460E460022F0
:102F1000284BFDF785FC03D84FF0FF30014607E052
:102F20000022254B20463146FDF74CFBFDF760FCA7
:102F3000102409E0002C0ADB0A220023FDF7AAF97D
:102F4000039B30321A55641E50EA0102F2D1641C10
:102F5000039AC4F111031444119A012A03D00122E7
:102F600008430DD10AE0084304D000204FF0110BB4
:102F7000119072E7A3EB0B056D1E0DE05B4504DDC0
:102F80004FF0000205F1010504E003DA4FF0000202
:102F9000A5F10105002AECD002981199C0E902318F
:102FA000C0E9004579E70000000014400000F03F50
:102FB000300000000000F0430000E03F2DE9FF4F2B
:102FC00095B09A46884606460025EEE1252877D139
:102FD00000242746F94A0121039400E0044316F82F
:102FE000013F203B01FA03F01042F7D130782A2844
:102FF00011D06FF02F033078A0F13002092A16D8D3
:10300000039A44F0020402EB820203EB42021044F2
:10301000761C0390EFE758F8042B0392002A03DA9A
:10302000504244F40054039044F00204761C30787B
:103030002E2816D116F8010F44F004042A280DD0CA
:103040006FF02F023078A0F13003092B09D807EB7D
:10305000870302EB4303C718761CF3E758F8047B99
:10306000761C30786C280FD006DC4C2817D06828E6
:103070000DD06A2814D104E0742810D07A280FD11A
:103080000DE044F400140AE044F4801401E044F438
:1030900040147278824202D104F58014761C761CAA
:1030A000307866280BD013DC582877D009DC00284C
:1030B00075D04528F6D04628F4D047281AD193E198
:1030C00018E0632835D0642879D0652812D18BE1C7
:1030D000702873D008DC6728F1D069286FD06E287B
:1030E0000DD06F2806D1ACE073282CD0752874D091
:1030F000782853D05246179990476D1C54E1C4F379
:103100000250022809D003280DD0D8F80010042856
:103110000DD00D6008F1040846E1D8F80010EA1758
:10312000C1E90052F6E7D8F800100D80F2E70D7003
:10313000F0E718F8041B8DF8001000208DF801004E
:10314000EB46012003E058F804BB4FF0FF30610765
:103150004FF0000102D40DE009F101018946B942A6
:103160000FDA8145F8DB1BF809100029F4D108E0DB
:1031700009F1010189468142FADB1BF80910002997
:10318000F6D103985346A0EB090721463846179A13
:1031900000F080FA284400EB090507E044E008E16C
:1031A0000DE01BF8010B524617999047B9F1010940
:1031B000F7D2534621463846179AF2E039E00A2101
:1031C000C4F302524FF0000B0091022A06D058F8C7
:1031D000040BC117032A09D00AE023E008F1070015
:1031E00020F00702F2E80201904605E000B2C117A4
:1031F000042A01D140B2C117002906DA0A4600218B
:10320000404261EB02012D2202E0220504D52B226F
:103210008DF80420012203E0E20701D02022F7E725
:10322000914657E00A2100E010214FF0000B009179
:103230000BE010214FF0000B44F00404082700912C
:1032400003E008204FF0000B0090C4F30252022A62
:1032500005D058F8040B0021032A08D008E008F133
:10326000070020F00702F2E80201904603E080B276
:10327000042A00D1C0B24FF0000922072AD53278C3
:10328000702A07D0DDF800C08CF0100C5CEA0B0C43
:1032900005D00EE040228DF80420012208E050EA1B
:1032A000010306D030238DF804308DF8052002226A
:1032B0009146009B83F0080353EA0B030AD150EABE
:1032C000010201D1620705D530228DF804204FF0AC
:1032D00001097F1E3278582A04D039A20C920CAA18
:1032E00002920BE03BA2F9E75B46009AFCF7D2FFA3
:1032F0000C9B9B5C029A521E0292137050EA0102D0
:10330000F2D1029804A9081A00F1200B600702D537
:1033100024F4803400E001275F4502DDA7EB0B00B9
:1033200000E0002000EB0B01009003984944401A94
:103330000390E00306D453462146179A039800F001
:10334000A9F90544002706E001A85246C05D179977
:1033500090476D1C7F1C4F45F6DBE0030CD55346B0
:103360002146179A039800F095F9054404E03020AF
:103370005246179990476D1C0099481E00900029ED
:10338000F5DC08E00298029952460078491C029147
:10339000179990476D1CBBF10001ABF1010BF1DCFB
:1033A0005BE100F065F90544761C307800287FF475
:1033B0000DAE19B02846BDE8F08F000009280100C5
:1033C000303132333435363738396162636465669B
:1033D000000000003031323334353637383941425D
:1033E0004344454600000000600700D4062708F16A
:1033F000070020F00700F0E80223804603F0004CAD
:103400005FEA0C0001D097A009E0200501D596A045
:1034100005E0E00701D095A001E0AFF24C00139069
:10342000307823F0004365280CD006DC452809D00D
:1034300046281DD047287FD13BE0662818D0672852
:103440007AD136E00021112F01DB112000E0781C39
:10345000CDE9000104A90CA8FFF7EEFCDDE90D01A0
:103460000C9A4FF0000B07F10109109200914EE009
:103470004FF000400097CDE9011004A90CA8FFF718
:10348000DBFCDDE90D020C9B0F994FF0000B914620
:103490001093009211B9791C00EB0109B7EB0900F8
:1034A00003D4C0F1FF3B07F10109A9EB070001902C
:1034B00042E0012F00DA01270021112F01DD112048
:1034C00000E03846CDE9000104A90CA8FFF7B4FCE0
:1034D000DDE90D010C9A00914FF0000BB9461092F6
:1034E00021070FD4009A4A4503DA914601E0A9F179
:1034F0000109B9F1010F05DD109AA9F10101515C33
:103500003029F4D0B84202DA10F1040F03DA0121B5
:10351000CDE9011010E0002803DC8344A9EB000191
:1035200002E0411C494500DD8946A0EB0B00401C30
:1035300001904FF000400290200705D401984845C3
:1035400002DB4FF0FF30019000208DF84B00029815
:103550000DF14B07B0F1004F25D002200C902B202D
:103560000D90029800280CDA404202902D200D9018
:1035700007E00A210298FCF793FF3031029007F828
:10358000011D0C99481E0C900029F2DC02980028BD
:10359000EFD1791E0D980870307800F0200040F0CF
:1035A000450007F8020D11A8C01BC01D029013981A
:1035B000007800B1012000EB0901019801EBE071F6
:1035C000029801440398401A401E0390E00306D479
:1035D00053462146179A039800F05CF80544139867
:1035E000007818B15246179990476D1CE00323D517
:1035F00053462146179A039800F04CF805441BE007
:10360000BBF1000F07DB0098584504DD10981799AF
:1036100010F80B0001E017993020524690470198AE
:103620000BF1010B401E05F10105019004D12E2084
:103630005246179990476D1CB9F10001A9F1010993
:10364000DEDC05E017F8010B5246179990476D1C18
:103650000299481E02900029F4DC53462146179A2D
:1036600003989EE62D0000002B00000020000000C3
:103670002DE9F041044600251E461746880404D46F
:1036800005E039462020B0476D1C641EF9D5284658
:10369000BDE8F0812DE9F041044600251E46904624
:1036A000C80301D5302700E02027880404D505E0B1
:1036B00041463846B0476D1C641EF9D52846BDE822
:1036C000F0810A68531C0B601070704701F008B954
:1036D00010B5044601F0B4F9200AA02101EB400026
:1036E000C0B201F07BF901F0EBF9E0B201F076F93C
:1036F00001F0E6F901F0A4F9A12001F06FF901F061
:10370000DFF9002001F038F9044601F0BBF920464A
:1037100010BD70B504460D4601F092F9200AA021B3
:1037200001EB4000C0B201F059F901F0C9F9E0B273
:1037300001F054F901F0C4F9284601F04FF901F005
:10374000BFF9BDE8704001F09DB9000010B5044616
:103750000420FEF7A3F9084804604FF47A7044434C
:103760004FF0E021086940F0020008614C610869EF
:1037700040F00100086110BD4000002070B5054612
:1037800000244FF47A7603E0304600F005F8641C1C
:10379000AC42F9D370BD000070B500214FF0E025B8
:1037A0006C690A4A12685043AB69AA699A42FCD014
:1037B00003D2A3EB0203194403E0A4EB0206334453
:1037C000194413468142F0D370BD00004000002030
:1037D00070B505460C46A00702D007A0FFF7E8FA2F
:1037E00009F08AFBE96809682160E9680C60BDE8B6
:1037F000704009F0CBBB00006D656D705F6672654F
:10380000653A206D656D2070726F7065726C7920FD
:10381000616C69676E65640070B5044609F06CFB05
:103820000546E06804685CB121680160A00702D029
:1038300006A0FFF7BDFA284609F0A8FB204670BD98
:10384000284609F0A3FB002070BD00006D656D7077
:103850005F6D616C6C6F633A206D656D7020707286
:103860006F7065726C7920616C69676E65640000C9
:103870002DE9F04104460F46002C02D136A0FFF797
:1038800097FA09F039FB002666602772217F41F024
:10389000010121776578667009F078FB636A1BB1D6
:1038A0000022042120469847636A1BB1002211467A
:1038B00020469847636A1BB10022022120469847A0
:1038C000384603F005FB804614F1100F06D020693E
:1038D00020B1414604F1100009F0CAFB14F1140FA5
:1038E00006D0606920B1414604F1140009F0C0FB24
:1038F000012D0BD0042D09D0032D07D0206A0028FC
:1039000028D0BDE8F04118A0FFF752BA207FC0F3DD
:10391000800100F0FB00207700291BD1206A10B93C
:1039200018A0FFF745FA042D08D0206A0771206A15
:1039300005680C352DB1286818B105E0206A0671BC
:10394000F5E717A0FFF734FA26622846BDE8F041F4
:1039500009F0CABCBDE8F081636F6E6E20213D2086
:103960004E554C4C00000000636F6E6E2D3E63752B
:103970007272656E745F6D7367203D3D204E554CCD
:103980004C000000636F6E6E2D3E63757272656E43
:10399000745F6D736720213D204E554C4C00000034
:1039A000696E61766C6964206F705F636F6D706CB7
:1039B000657465645F73656D000000002DE9F74F65
:1039C00084B080464FF00A0AD1460A270024BB463D
:1039D00000200290019000904A4904EB440001EB62
:1039E000C0060390357D0A2F00D1CDB135B3012D2E
:1039F00004D0022D02D244A0FFF7DAF9B8F1000F8B
:103A000010D0D8F80000716888420BD1069818B120
:103A1000B1680698814205D1204607B0BDE8F08F15
:103A200027460BE0012D15D0022D07D3052D05D219
:103A3000708A0099884201D3A1460090641C24B288
:103A40000A2CC9DB05984FF0FF3180071CD40A2FE0
:103A500013D015E02B48039950F8310030B1708A2B
:103A600002998842EAD3A3460290E7E7708A019957
:103A70008842E3D3A2460190E0E70598C00703D04F
:103A80000A2F03DA3C4620E00846C6E7B9F10A0FE0
:103A90000ADA4C461B4804EB440150F8310060B18F
:103AA00029A0FFF785F908E0BAF10A0F01DA5446B8
:103AB00003E0BBF10A0F23DA5C460A2C02DB28A0E4
:103AC000FFF776F9204600F06BF80A2C02DB24A001
:103AD000FFF76EF90B4804EB440100EBC105287DAC
:103AE00010B124A0FFF764F9B8F1000F02D0D8F8A4
:103AF00000006860002068820698A86020468CE775
:103B000008468AE764F800207374617465203D3DBF
:103B1000204554484152505F53544154455F5045ED
:103B20004E44494E47207C7C207374617465203E6E
:103B30003D204554484152505F53544154455F53D2
:103B40005441424C450000006172705F7461626CC8
:103B5000655B695D2E71203D3D204E554C4C00004B
:103B600069203C204152505F5441424C455F5349CB
:103B70005A4500006172705F7461626C655B695DDB
:103B80002E7374617465203D3D2045544841525068
:103B90005F53544154455F454D5054590000000057
:103BA00070B50C4E00EB4004002556F83400002898
:103BB00003D007F041F946F8345006EBC400057510
:103BC00045828560456004490A68C260898801822F
:103BD00070BD000064F80020EA5D01082DE9F043A3
:103BE00087B007460D46002D09D07C684FF48078D9
:103BF000208840450FD1207906280CD105E01FA070
:103C0000FFF7D6F807B0BDE8F0836079042802D149
:103C10006088082803D0384607F00EF9F2E7D4F898
:103C20000E000690A0690590696819B1884203D119
:103C3000012602E0002600E000260EB1012300E08C
:103C4000022304F10802914606A9284600F0A6FACC
:103C5000E08840450ED16EB106AACDE9019202215D
:103C6000281D05F126030391009019464A4628466F
:103C700000F0CEF9384607F0DFF8C3E76E657469E7
:103C80006620213D204E554C4C000000FEB50446F8
:103C90000E461546002C02D13FA0FFF789F816B951
:103CA00041A0FFF785F8280002D142A0FFF780F875
:103CB0002146286800F0ABFF08B1424B3FE028687E
:103CC000C0F303110E2925D0A168636800EA010240
:103CD0000B409A4208D080B2A0F57E41A93903D0AA
:103CE000E068B0B304F10C05374B38491A7802EBA1
:103CF000420001EBC000077D022F2ED38768A74248
:103D00002BD12F684068874227D13146204600F0EA
:103D10005FF8FEBD01208DF8040000208DF805003D
:103D20005E208DF80600687800F07F008DF80700AF
:103D3000A8788DF80800E8788DF8090001AB4FF4F9
:103D40000060009004F126023146204600F01AFB84
:103D5000FEBDFFE76FF00300FAE7002202EB42002E
:103D600001EBC000077D022F0CD38768A74209D161
:103D70002F684068874205D11A703146204600F00E
:103D800027F8E5E7521CD2B20A2AE7D33246294681
:103D9000204600F075F8DBE76E6574696620213D0A
:103DA000204E554C4C0000007120213D204E554CBA
:103DB0004C00000069706164647220213D204E5502
:103DC0004C4C0000E45D0108C402002064F80020AF
:103DD0002DE9F84306460F4615461C4805EB4501FC
:103DE00000EBC104207D022802D219A0FEF7E0FFFB
:103DF000164A05EB4501207D02EBC1050C35022872
:103E000018D1618A4FF00308B1F58E7F07D9211DC3
:103E1000304600F07BF968B984F814800AE0B1F507
:103E2000877F07D32A46211D304600F075F908B96F
:103E300084F814804FF4006000902B4606F12602AF
:103E40003946304600F09EFABDE8F88364F8002059
:103E50006172705F7461626C655B6172705F6964EE
:103E6000785D2E7374617465203E3D204554484151
:103E700052505F53544154455F535441424C4500A6
:103E80002DE9FC5F8246884617460AF1260001901C
:103E90004FF0FF3600245146D8F8000000F0B7FE7E
:103EA000A0B9D8F80000C0F303110E290ED0B8F164
:103EB000000F0BD050B1524601214046FFF77EFD66
:103EC0000546002D05DA68B2BDE8FC9F6FF00F00D3
:103ED000FAE77F2D02D337A0FEF76AFF05F0FF0B4C
:103EE00038480BEB4B0900EBC905297D21B90124AA
:103EF00001212975C5F808A0287D012804D00228D1
:103F000002D231A0FEF754FF04B96FB941465046C2
:103F100000F0FCF80646300005D1287D012802D1CA
:103F20000CB9002068829FB1287DDFF898800228B4
:103F300010D32F4880F800B04FF40060009005F1D6
:103F40000C0339465046019A00F01CFA06462FE051
:103F50003046B9E701282BD100253C460EE06089A8
:103F60002189884204D1206810B122A0FEF720FFE9
:103F7000207B400601D5012502E02468002CEED10B
:103F80003DB13A464FF420710E2006F0C5FD0746BC
:103F900002E0384607F07AF847B158F8390008B11E
:103FA00006F04AFF48F83970002601E04FF0FF366E
:103FB000304689E774797065206F766572666C6F3C
:103FC0007700000064F800206172705F7461626CB9
:103FD000655B695D2E7374617465203D3D205045BD
:103FE0004E44494E47206F7220535441424C450085
:103FF000C40200206E6F207061636B657420717560
:104000006575657320616C6C6F77656421000000D5
:104010002DE9FF4F81B00646DDE90FABDDF83890A2
:104020001F464FF00008002E02D126A0FEF7C0FE6A
:104030004FF420721C210E2006F0D0FB054628000C
:104040003CD068891C2802D222A0FEF7B1FE6C6821
:10405000119802F02FF9E08096F82C00062802D083
:104060002948FEF7A5FE3868A060B888A081DAF874
:104070000000C4F81200BAF80400E082D9F8000089
:10408000C4F80E00DBF80000A0614FF480702080BF
:1040900008206080062020710420607140F6060030
:1040A000DDE9022300902946304600F06BF92846EE
:1040B00006F0C2FE404605B0BDE8F08F4FF0FF307D
:1040C000F9E700006E6574696620213D204E554C6D
:1040D0004C000000636865636B207468617420663F
:1040E0006972737420706275662063616E20686FF8
:1040F0006C64207374727563742065746861727087
:104100005F6864720000000000620108014A00F06C
:1041100003B80000E45D01087FB5064D031D0124CE
:10412000CDE90035CDE9021422331946FFF770FFBF
:1041300004B070BDEA5D010870B50024164D04EBB3
:10414000440005EBC002117D09B305291FD0508A38
:10415000401C80B25082B0F5967F03D2012905D170
:10416000052803D32046FFF71BFD10E0032904D0E8
:10417000042905D0012906D009E00420107506E0C5
:104180000220107503E0111D9068FFF7BFFF641C4B
:104190000A2CD4DB70BD000064F80020F8B504469A
:1041A0000D4616461F4694F82C00062802D028A07B
:1041B000FEF7FEFD9DB1286888B1214600F027FD7D
:1041C00068B92878C0F303100E2808D02246394673
:1041D0002846FFF7F3FB002804DA40B2F8BD6FF081
:1041E0000F00F8BD234A790706D500EB400302EB28
:1041F000C3030521197508E000EB400102EBC10182
:104200000B7D052B20D002230B7500EB400002EB49
:10421000C0018C603368CB60B3880B8200234B8273
:1042200052F8305075B142F830304FF400600090D1
:10423000334604F126022946204600F0A3F828461A
:1042400006F0FAFD0020F8BD6FF00500F8BD000093
:104250006E657469662D3E6877616464725F6C6533
:104260006E203D3D204554485F4857414444525FCD
:104270004C454E0064F800202DE9F04104460D46FF
:104280000E2760890E283DD9E07B18B995F83000DB
:10429000401CE073606886890178CA0715D001293F
:1042A00005D006221D49FCF76FF850B10DE04178AA
:1042B00059B980785E2808D1607B40F010006073A7
:1042C00003E0607B40F008006073082E03D0B6F571
:1042D000C16F17D10DE095F82D00000712D53946B2
:1042E000204606F0F1FE68B92946204600F0B0FDF0
:1042F00012E095F82D00000704D53946204606F057
:10430000E3FE28B1204606F097FD0020BDE8F081CD
:1043100029462046FFF762FC0020F7E7E45D01082C
:1043200010B506A0FEF744FD094800231A46406870
:10433000BDE81040194610F027B90000CACDB7C536
:10434000B6FED6B5D0C5BAC5C1BF0D0A0000000083
:10435000D002002008B50289011D11444161C288C4
:104360000648006801F068FC0090054800235A1ECA
:104370006946006810F008F908BD00008C000020B4
:10438000D00200202DE9F04106460F4615461C4696
:10439000069801F08FFF80460E21384606F0E2F9BC
:1043A00018B16FF00100BDE8F0817868A0F80C80CA
:1043B00021680160A18881802968C0F80610A98859
:1043C000418196F82C00062802D004A0FEF7F0FCEC
:1043D00039463046B269BDE8F04110476E657469F0
:1043E000662D3E6877616464725F6C656E206D75E2
:1043F0007374206265203620666F7220657468656C
:10440000726E65745F6F75747075742100000000C2
:1044100010B50446002C02D108A0FEF7C9FC6520A7
:1044200084F82E006E2084F82F0008486061084848
:10443000A061204601F0DEFC002010BD6E657469AD
:104440006620213D204E554C4C0000008D3C00085C
:10445000B55E000808B50546144E4FF0FF373A46E2
:104460006946306810F098FA0128F8D10FF054F836
:10447000009881B20E48006801F088FB044624B918
:10448000E8220CA116A0FEF793FC0FF089F8002C8F
:10449000E5D00FF041F82B6929462046984710B126
:1044A000204606F0C9FC0FF07BF8D8E7D0020020C8
:1044B0008C0000202E2E5C2E2E5C4D6964646C6591
:1044C00077617265735C4C5749505C617263685CDC
:1044D00065746865726E657469662E63000000001D
:1044E0004572726F723A2025732C2025640D0A00E4
:1044F000D0E90110814201D10120704700207047AE
:10450000D0E901128089891A814201D101207047C6
:1045100000207047818802898089891A401A80B2F8
:104520007047000003490A685206FCD5C2B24A60CF
:10453000704700000010014010B5002821D0114B39
:104540000022001F196803E0814203D80A46496827
:104550000029F9D152B11368841A9C4204D1006831
:1045600018441060104602E0506000E0186039B155
:1045700002680B1A934203D10B681A44026049681F
:10458000416010BD5C0300201CB508480521CDE941
:1045900000100023802206A1084810F017FC0FF03D
:1045A0006FFBBDE81C4006A0FEF702BC080000201F
:1045B00073746172745F7461736B00007DCD000869
:1045C000BFAACABCC8CECEF1B5F7B6C8C1CB0D0ADA
:1045D000000000000A46032100F0F6B82DE9FE4F66
:1045E00004468946DFF85C81D8F8087038780007FF
:1045F000860E142E7DD360890428FBD36068017871
:1046000011B1082903D103E04FA0FEF7D1FB8EE0E2
:10461000DFF830A10AF1140AD8F81400C0F303112E
:104620000E2956D0D8F8001000F0F1FA002850D129
:1046300020890828DED3204600F07AFA20B12046EF
:10464000BDE8FE4F06F0F8BB06F10E010D46204610
:1046500006F088F878B32089811989B2884238D861
:104660004FF420720E2006F0B9F80546002D30D028
:10467000698906F10800814203D2284606F0DCFB76
:1046800027E0324639466868FBF74CFE314628463B
:1046900006F01AFD30B131A0FEF78AFB284606F07D
:1046A000CBFB16E02146284606F056FA20B12846F4
:1046B00006F0C2FB0DE004E0204606F0BDFB2C46F0
:1046C0000CE02946204606F0FFFC38B131A0FEF789
:1046D0006FFB2046BDE8FE4F06F0AEBB6768314673
:1046E000204606F03FF810BB6568DAF80000E86085
:1046F00000E021E0D8F8100028614FF0000887F8AA
:104700000080A7F80280FF202872A5F80A803146B1
:10471000284600F007FA68810120CDE90109FF234E
:1047200000225146CDF80080204600F085FC20464E
:10473000BDE8FE4F06F080BB2046BDE8FE4F06F008
:104740007BBB000064090020CAD5B5BDC1CB706930
:104750006E67BBD8B8B40D0A0000000069636D70C5
:104760005F696E7075743A206D6F76696E6720723E
:104770002D3E7061796C6F616420746F2069636D88
:104780007020686561646572206661696C65640AA1
:104790000000000069636D705F696E7075743A2087
:1047A000726573746F72696E67206F726967696E84
:1047B000616C20702D3E7061796C6F616420666160
:1047C000696C65640A0000002DE9FF4707468846CA
:1047D00091461C2638891C2800D2064606F108009E
:1047E000044681B24FF42072222005F0F7FF0546FF
:1047F00028002ED06889A04202D217A0FEF7D8FA6E
:10480000D7F804A06C6884F8008084F801904FF019
:104810000008A4F80480A4F8068068687968083065
:104820003246FBF77FFDDAF80C00039003A800F096
:10483000ADFD58B1A4F802800121CDE900810290BC
:10484000FF2303AA0021284600F0F6FB284606F0C5
:10485000F3FABDE8FF870000636865636B20746846
:10486000617420666972737420706275662063617A
:104870006E20686F6C642069636D70206D65737362
:10488000616765000A460B21FFF79EBF70B5114DA9
:104890004FF40074002221462846FCF724FC00F067
:1048A0001BF80122160231462846FCF71CFC00F0DA
:1048B00013F8002231462846FCF715FC00F00CF8EE
:1048C000012221462846FCF70EFCBDE8704000F0AE
:1048D00003B80000000402400220FEF75DBF0000A4
:1048E00010B586B01448016841F00201016001680A
:1048F00001F002010091016841F0020101600068CD
:1049000000F0020000904FF48070019001200290AE
:10491000039003200490094C01A92046FCF7ECFA0F
:10492000611501911121029101A92046FCF7E4FAD9
:1049300000F0A8F806B010BD303802400004024074
:1049400070B50C4C012251022046FCF7CCFBFFF75E
:10495000C3FF0122150229462046FCF7C4FBFFF7DE
:10496000BBFF002229462046FCF7BDFBBDE8704096
:10497000FFF7B2BF000402402DE9F0478046002453
:104980000025154E4FF400794FF480776006040E31
:10499000012239463046FCF7A6FBFFF79DFF49464A
:1049A0003046FCF791FB08B1641CE4B200223946A2
:1049B0003046FCF798FBFFF78FFF6D1CEDB2082D1A
:1049C000E4D3B8F1000F04D0FFF760FF2046BDE844
:1049D000F087FFF7B5FFF9E7000402402DE9F04149
:1049E00005460024154E4FF40078B715280605D566
:1049F000012241463046FCF776FB04E000224146A6
:104A00003046FCF770FBFFF767FF0122394630465E
:104A1000FCF769FBFFF760FF002239463046FCF7E0
:104A200062FB6806050E641CE4B2082CDED3414626
:104A30003046BDE8F0410122FCF755BB00040240BE
:104A400070B501220E4D540221462846FCF74BFB5F
:104A50000122160231462846FCF745FBFFF73CFFD2
:104A6000002221462846FCF73EFBFFF735FF0022D7
:104A700031462846FCF737FBBDE87040FFF72CBFF6
:104A80000004024070B50D4D4FF400740022214621
:104A90002846FCF728FBFFF71FFF012211022846DA
:104AA000FCF721FBFFF718FF012221462846FCF7FF
:104AB0001AFBBDE87040FFF70FBF00000004024082
:104AC0002DE9F041002400250122154E57023946F8
:104AD0003046FCF708FBFFF7FFFE4FF48078012219
:104AE00041463046FCF7FFFAFFF7F6FE07E0641C8C
:104AF000E4B2FA2C03D9FFF7C5FF012505E03946DA
:104B00003046FCF7E1FA0028F1D100224146304658
:104B1000FCF7E9FAFFF7E0FE2846BDE8F081000067
:104B20000004024000B502F06BFAC04380B200BD41
:104B300070B505460026002412E06989686802F015
:104B40005FFA204481B201EB1044A87AC00706D076
:104B50008EB10026E0B2C4F3072141EA00242D689B
:104B6000002DEAD126B1E0B2C4F3072141EA0024C6
:104B7000E04380B270BD0126ECE730B4029D1B68B3
:104B80009CB204EB13442B689DB22C4404EB1343FA
:104B90009CB204EB13439CB204EB134330BCAFF361
:104BA00000802DE9F04105460F4690461C46002640
:104BB00012E06989686802F023FA204481B201EBAF
:104BC0001044A87AC00706D0FEB10026E0B2C4F3B4
:104BD000072141EA00242D68002DEAD126B1E0B278
:104BE000C4F3072141EA0024384601F063FB044482
:104BF000404601F05FFB204481B201EB104000EB26
:104C00001040C04380B2BDE8F0810126DEE708B560
:104C10000090421C07D0020005D091F82D20920789
:104C200003D4002008BD012008BD4A68824201D19A
:104C3000002008BD896800EA01030A40934202D1BE
:104C40000143491C01D0002008BD012008BD00001F
:104C50002DE9F74F88B0044600270998808C143856
:104C6000C11700EB5170C0F3CF00059014256068A8
:104C700006900698BE1F017801F00F01052903D0A8
:104C800030460BB0BDE8F08F6189142904D25CA0D6
:104C9000FEF78EF83046F4E7C08801F00BFBC0F356
:104CA0000C01039100F400500290208914381FFA7F
:104CB00080F89EE005984FF6FF7101EAC00040457C
:104CC00000D9404604904FF4207214210E2005F0C4
:104CD00085FD82465FEA0A0059D0BAF80A00142816
:104CE00002D24EA0FEF764F81422DAF80400069906
:104CF000FBF718FBDAF804B0049E2FE06089411B33
:104D00008FB2A84202D24DA0FEF752F8BE4200D2A6
:104D1000374677B300F069FC81465FEA09002CD082
:104D200060684B462844CDE90007412239460020FF
:104D300005F060FE0790079818B3204606F0A6F924
:104D4000C9F814404148C9F810005046079905F0C9
:104D50006DFEF01B86B20EB100252468002ECDD169
:104D6000E81985B20998808C1438404512DB01217E
:104D700011E0FFE700252468F0E7504606F05CF8F4
:104D800005E0484600F034FC504606F055F84FF078
:104D9000FF3076E700210398C0F30C0009B10299B7
:104DA00009B140F4005001F085FAABF80600049810
:104DB000143080B201F07EFAABF802000020ABF8AC
:104DC0000A0014215846FFF7ADFEABF80A00099817
:104DD00051460A9A43699847504606F02DF80498C0
:104DE000A8EB00001FFA80F805990398084480B2E8
:104DF0000390B8F1000F7FF45DAF002041E70000A1
:104E00006970345F6672616728293A20706275663E
:104E100020746F6F2073686F727400007468697318
:104E2000206E656564732061207062756620696E0E
:104E3000206F6E652070696563652100702D3E6C82
:104E4000656E203E3D20706F66660000615A000866
:104E50002DE9F04707460E467D6804212878B1EB1E
:104E6000101F05D0384605F0E7FF0020BDE8F087A9
:104E700000074FEA9068688801F01CFA04463889F8
:104E8000A04203D92146384606F0A0F8788940456B
:104E900005D33889A04202D3B8F1140F04D23846A2
:104EA00005F0CAFF0020E1E741462846FFF73AFE39
:104EB00020B1384605F0C0FF0020D7E7DFF8449165
:104EC0002869C9F81400E968C9F81010C0F3031084
:104ED0000E2805D0304600F099F858B134461AE053
:104EE00096F82D00C00703D0706808B1344612E070
:104EF000002410E0002499F814007F280BD04248C9
:104F0000046806E0B44203D0204600F07FF810B9F0
:104F10002468002CF6D13146D9F81000FFF777FE4F
:104F2000B0BB99F81000C0F303100E2833D084B33F
:104F3000E88830F0C00005D0384600F031F9074667
:104F400047B37D68C9F80040C9F80460C9F8085043
:104F500028780007800EA9F80C003146384606F084
:104F6000BFFF8246BAF1010F3DD04146384606F0F8
:104F7000ABF8687A01281FD0062818D0BAF1020FC2
:104F80002ED02146D9F81400FFF741FEC8B127E022
:104F900001E005E009E0384605F04EFF002065E736
:104FA000384605F049FF002060E700205EE7314603
:104FB000384609F01DF916E031463846FFF70EFB7A
:104FC00011E099F81400C0F303100E2808D00FFA6E
:104FD00088F1384605F0B3FF02213846FFF7FAFAA8
:104FE000384605F029FF0020C9F80000C9F8040080
:104FF000C9F80800A9F80C00C9F81000C9F8140095
:1050000034E70000640900206802002010B590F821
:105010002D10C9070CD0416851B1064A52698A4225
:1050200004D001461046FFF7F2FD08B1012010BD83
:10503000002010BD64090020FEB5DDE908670A9C68
:10504000002A04D00D0001D00D6805B9211DCDE95D
:105050000067029400F002F8FEBD00002DE9F84F51
:105060000546DDE90B890A9F8A4616469B46A87BC2
:10507000012802D039A0FDF79BFE6FF00104002E3D
:1050800050D01421284605F06DFB10B12046BDE834
:10509000F88F6C686889142802D233A0FDF788FE67
:1050A00084F808B084F809804FEA082048EA0B2108
:1050B00040EA11213068206182B2114401EB1040B6
:1050C000452121706770390247F48A4241EA122172
:1050D0000F18288901F0EEF8608000EB0708002027
:1050E000E0802D4F388801F0E5F8A08000EB080142
:1050F0003888401C3880BAF1000F0FD0DAF8000071
:10510000E060E06882B2114401EB104081B201EB33
:10511000104000EB1040C04360810CE01F48006865
:10512000E060EEE76889142801D22046AFE768689E
:10513000006900906E46B9F8240040B12989814287
:1051400005D9324649462846FFF782FD9FE7D9F840
:105150001430324629464846984798E7702D3E72EB
:105160006566203D3D203100636865636B2074688F
:105170006174206669727374207062756620636161
:105180006E20686F6C64207374727563742069702C
:105190005F68647200000000C6020020E05D010844
:1051A0002DE9F0478246DAF80450287800F00F0025
:1051B000052873D1E88801F07DF8C0044FEA104853
:1051C000688801F077F829780907890E814265D847
:1051D000401A1FFA80F9504605F094FC06465B4FD2
:1051E000388830440A2809D93146284600F0DEFBC9
:1051F000002853D0388830440A28E8D87C680CE06E
:105200006069E968884207D1A0692969884203D1A9
:10521000A089A988884202D02468002CF0D12CB142
:10522000E88801F047F8C00408D012E0314628466B
:1052300000F006FB0446200030D00AE0E08901F0CF
:1052400039F8C00405D01422294604F10800FBF700
:1052500069F8A87940F340156D1C45B108EB0900C9
:1052600080B2404560D34FF6EB7188425CD82A4645
:105270005146204600F0D0F9411C55D039883144C0
:10528000398035B108EB0901A183A17F41F001010B
:10529000A177012803D00020BDE8F08750E0A08B63
:1052A00014301FFA80F8606846683568142204F1EB
:1052B00008013046FBF736F8404600F0FBFF7080EF
:1052C0000020F080708114213046FFF72BFC7081A4
:1052D000D4F8048009E06E681421284605F0F4FE35
:1052E0002946404605F0A2FB3568002DF3D17968C8
:1052F0008C4205D1002105E00868A04202D0014699
:105300000029F9D1204600F075FA404605F0FAFB75
:1053100004463888A04202D20DA0FDF749FD388826
:10532000001B38804046B7E7606848B97868844217
:1053300002D00EA0FDF73CFD0021204600F05AFAF5
:10534000504605F079FD0020A6E70000C8020020C5
:1053500069705F72656173735F70627566636F75A4
:105360006E74203E3D20636C656E00006E6F74208D
:105370006669727374616C74686F756768206A75AA
:10538000737420656E7175657565640070B5064649
:105390001448006814E090F82D10CA070FD04A078F
:1053A0000DD543685BB184683268234002EA040586
:1053B0009D4216D0890702D4C1688A4211D0006884
:1053C0000028E8D10848006850B190F82D10CA07AD
:1053D00006D0490704D5416811B131787F2900D141
:1053E000002070BD680200206C0200202DE9FF4102
:1053F000064688466F463478FAF77EFF8446DCF826
:105400000030185D202803D0002004B0BDE8F081F2
:1054100000250A20302C06D116F8014F782C08D030
:10542000582C06D008201A5D202A06D0102810D04B
:105430001FE0102016F8014FF5E7082803D1A4F16A
:105440003001082915D2303C05FB004516F8014F04
:10545000E9E782EA820109060BD5110701D561212E
:1054600000E04121611A0A3141EA051516F8014FA1
:10547000D9E72E2C11D024B1DCF80000005DC00764
:1054800014D06846381A012101EBA000052849D242
:10549000DFE800F00E4B101D300003A8874201D357
:1054A0000020B2E720C716F8014FA8E70020ACE7BC
:1054B0000020AAE7B5F1807F01D30020A5E700987E
:1054C000FF2801D90020A0E745EA00652DE0B5F5E9
:1054D000803F01D3002098E70098FF2802D8019967
:1054E000FF2901D9002090E70199000640EA014018
:1054F00005431AE0FF2D01D9002086E70098FF2818
:1055000005D80199FF2902D80299FF2901D9002065
:105510007BE70199000640EA0140029940EA012038
:10552000054302E006A0FDF743FCB8F1000F04D0EC
:10553000284600F0B3FEC8F80000012065E700002F
:10554000756E68616E646C6564000000102201492C
:1055500000F002B854F900202DE9FC470346084644
:10556000002519680191044601AFAC464FF00A09C5
:10557000EA4600233E78B6FBF9F809FB1868B6FB4B
:10558000F9F139701E4608F130085B1CDBB20AF8ED
:1055900006800029EED10AE029466D1C914202DB0B
:1055A0000020BDE8FC871AF8031004F8011B5B1EFD
:1055B000DBB2F1D229466D1C914201DB0020F0E7FD
:1055C0002E2104F8011B7F1C0CF1010C0CF0FF0CC8
:1055D000BCF1040FCDD3002104F8011CE1E738B57C
:1055E000049C0094FFF7C9FA38BD052002F00CBFF7
:1055F00010B50446002C02D104A0FDF7D9FB2146CA
:10560000BDE81040052002F0BDBE00007020213D25
:10561000204E554C4C0000002DE9F05F07468846AF
:10562000924600250126D8F80440608800F042FE2A
:1056300021780907890E4FF0FF39814202D9484687
:10564000BDE8F09FA0EB010BE08800F033FEC00442
:10565000010CD8F8044000202060A18001EB0B0071
:105660001FFA80FCA4F806C08C4501D24846E7E743
:1056700078682BE043689A88914218D2206075B10F
:10568000EA88914202D399888C4501D94846D7E7E8
:10569000C5F80080A1888A421AD0002618E09988AF
:1056A0008C4501D94846CBE7C7F8048010E001D10A
:1056B0004846C5E7D888814201D24846C0E71DB1B7
:1056C000E888904200D0002618681D460028D1D1F5
:1056D000B0B975B1E888A188884202D922A0FDF747
:1056E00067FBC5F80080E888A188884208D00026BA
:1056F00006E0786810B124A0FDF75AFBC7F80480D3
:10570000BAF1000F02D1B87FC0072BD02EB37A6850
:1057100012B15068808808B100261EE0214620683A
:1057200008E04468C888A188884201D0002603E0C8
:10573000206821460028F4D17EB112B920A0FDF7DF
:1057400037FB78684068A04202D11DA0FDF730FB0E
:10575000206810B11EA0FDF72BFB0EB101206FE7F2
:1057600000206DE700206BE7636865636B2066725D
:1057700061676D656E747320646F6E2774206F7639
:1057800065726C61700000006E6F207072657669E2
:105790006F757320667261676D656E742C20746816
:1057A0006973206D75737420626520746865206666
:1057B0006972737420667261676D656E7421000092
:1057C00073616E69747920636865636B0000000023
:1057D00076616C69646174655F646174616772614C
:1057E0006D3A6E6578745F70627566213D4E554CFA
:1057F0004C00000070B504460D4609484168A142BE
:1058000002D12168416005E015B906A0FDF7D0FA84
:10581000206828602146BDE87040042002F0B2BD37
:10582000C802002073616E69747920636865636BD8
:10583000206C696E6B6564206C69737400000000F5
:1058400070B506460D46042002F0DEFD044654B94C
:105850002946304600F0AAF8A84203DB042002F0F3
:10586000D3FD04468CB120212046FAF782FD0F209B
:10587000E07707484168216044601422314604F112
:105880000800FAF74FFD204670BD002070BD0000F3
:10589000C80200202DE9F04706460F460025B74212
:1058A00002D128A0FDF784FA2FB13868B04202D0A7
:1058B00027A0FDF77DFAD6F80480D8F804004FF44D
:1058C00080398188C9B900687060142206F1080126
:1058D000D8F80400FAF726FD01214046FEF7D2FF72
:1058E000404605F00FF904464C4502D31DA0FDF7D4
:1058F0005FFAA5B2404605F09FFA74680FE0606851
:10590000A0460468404605F0FDF805444D4502D325
:1059100014A0FDF74DFAADB2404605F08DFA002C0B
:10592000EDD139463046FFF765FF164C2088A84276
:1059300002D215A0FDF73CFA2088401B20802846A3
:10594000BDE8F0877072657620213D206970720095
:10595000707265762D3E6E657874203D3D206970CD
:105960007200000070627566735F66726565642020
:105970002B20636C656E203C3D2030786666666641
:1059800000000000C802002069705F7265617373D7
:105990005F70627566636F756E74203E3D20706245
:1059A0007566735F66726565640000002DE9F047F7
:1059B00005460F460026DFF87880002000210023EE
:1059C0000024D8F8042022E0D2F814C0D5F80C90B6
:1059D000CC450BD1D2F818C0D5F81090CC4505D1E4
:1059E000B2F80CC0B5F80490CC4509D0641CE0B105
:1059F00092F81FC090F81F90CC4501D810460B4676
:105A0000D2F800C0BCF1000F00D011466246002A57
:105A1000DAD118B11946FFF73DFF0644BE4201DA5C
:105A2000012CCADC3046BDE8F08710460B46E7E79C
:105A3000C802002070B50025084844680BE0E07FEC
:105A400020B1401EE0772546246804E02046246803
:105A50002946FFF71FFF002CF1D170BDC8020020BE
:105A600010B50446002C02D105A0FDF7A1F960692C
:105A700008B105F0E1F92046BDE81040FFF7B8BDD8
:105A800070637220213D204E554C4C0070B5054688
:105A9000002D1BD0681E054203D0284606F04AFCA4
:105AA0000546294610A0FDF783F91021002003F0D8
:105AB000F3FE044600202060A5816060A0602946B6
:105AC00003F0EAFE20601CB110B106E0002070BDBA
:105AD000202209A113A0FDF76BF9206808B1204628
